:020000040000FA
:1000000080312328003008007E1480310B1F212806
:100010002100111E15282000111E152821006E0830
:100020008A006D080A00803121282100911E2128B4
:100030002000911E212821006C088A006B080A000C
:1000400080317E10090080312528003084008830FE
:1000500085006C308600003087000330973111270F
:1000600080314A30840088308500D43086000030EA
:1000700087001330973111278031FC015330840001
:1000800000308500193097310B278031A030840073
:1000900000308500343097310B27803120308400C8
:1000A00001308500203097310B277E1020008031F1
:1000B00059288831252080318B170B175D30F100CE
:1000C0000830F2009631E12680314C30F1001730D3
:1000D000F2009631DB26803122000C112000E10174
:1000E000D901DA01590889310B21803120005908E2
:1000F00089312421803100302100BB000030BA005A
:100100000030B9000030B80020005D03031D8C28CA
:10011000DD018931C82180319631B1268031003A24
:10012000031990298A314C2280312200C2004208F2
:100130002000E30063088931E6218031003A031989
:10014000902920006008031DB02863082200C20027
:1001500042082000E20063088A31BD2280319029E4
:100160006103031D832954306306031D1A290730D8
:1001700089310B21803115302200C3004B30C20081
:10018000BE30890BC128C20BC128C30BC128000097
:1001900015302200C3004B30C200BE30890BCE2880
:1001A000C20BCE28C30BCE28000015302200C3009E
:1001B0004B30C200BE30890BDB28C20BDB28C30BDF
:1001C000DB28000015302200C3004B30C200BE30D7
:1001D000890BE828C20BE828C30BE828000015307B
:1001E0002200C3004B30C200BE30890BF528C20B81
:1001F000F528C30BF528000015302200C3004B3052
:10020000C200BE30890B0229C20B0229C30B02298E
:1002100000002000E101E00100302100BB000030BF
:10022000BA000030B9000030B80020005908893108
:100230000B218031463020006306031D90290030D9
:1002400089310B21803115302200C3004B30C200B0
:10025000BE30890B2929C20B2929C30B292900008B
:1002600015302200C3004B30C200BE30890B362946
:10027000C20B3629C30B3629000015302200C300FB
:100280004B30C200BE30890B4329C20B4329C30B3C
:100290004329000015302200C3004B30C200BE309D
:1002A000890B5029C20B5029C30B5029000015306F
:1002B0002200C3004B30C200BE30890B5D29C20B47
:1002C0005D29C30B5D29000015302200C3004B30AF
:1002D000C200BE30890B6A29C20B6A29C30B6A2986
:1002E00000002000E101E00100302100BB000030EF
:1002F000BA000030B9000030B80020005908893138
:100300000B218031902954306306031D8B2962082C
:100310008C318C2480314630200063060319E001C3
:10032000893171218031003A031984282000610845
:10033000031D5C2A6003031DB72901302100B807A3
:100340000030B93D0030BA3D0030BB3D1E303806AC
:1003500039043A043B04031DB7290030BB000030C8
:10036000BA000030B9000030B8002000E0010030D1
:1003700089313D218031003A0319582A013021008A
:10038000C2070030C33D2030420603300319430644
:10039000031D8428C201C30100302000C80098302A
:1003A000C90088311420803115302200C3004B3041
:1003B000C200BE30890BDA29C20BDA29C30BDA2955
:1003C000000015302200C3004B30C200BE30890B44
:1003D000E729C20BE729C30BE729000015302200EB
:1003E000C3004B30C200BE30890BF429C20BF42984
:1003F000C30BF429000015302200C3004B30C200AB
:10040000BE30890B012AC20B012AC30B012A00004E
:1004100015302200C3004B30C200BE30890B0E2ABB
:10042000C20B0E2AC30B0E2A000015302200C30097
:100430004B30C200BE30890B1B2AC20B1B2AC30BD8
:100440001B2A000015302200C3004B30C200BE3012
:10045000890B282AC20B282AC30B282A0000153032
:100460002200C3004B30C200BE30890B352AC20BBC
:10047000352AC30B352A000009302000C800983007
:10048000C9008831142080312000E101E10AE00137
:10049000E00A00302100BB000030BA000030B90093
:1004A0000030B800003089310B2180312000B42A9F
:1004B0002100C201C30184286003031D8428013088
:1004C0002100B8070030B93D0030BA3D0030BB3DD7
:1004D0003B08031D742A3A08031D742A3030380281
:1004E0007530393B031C942A003089310B2180314F
:1004F00021003B08031D832A3A08031D832A7D300F
:100500003902031C84280030BB000030BA000030E0
:10051000B9000030B8002000590889310B21803122
:100520002000E001E101842801302200C2004208DD
:100530002000DE075F08031DAA2A003089310B2145
:100540008031C83020005E06031D8428DE01DF01F3
:10055000DF0A8428013089310B218031C830200026
:100560005E06031D8428DE01DF0184282000AD0023
:10057000A801A901AA01AB01A701A401A5012D08A9
:100580000319F52A7B080319F52A2D08083E860071
:1005900087018119D92A7B08083E86008701811DC1
:1005A000D92A2D08083E860087018115A401A40AD6
:1005B000092B7B08083E860087018119ED2A2D084A
:1005C000083E86008701811DED2A7B08083E8600D3
:1005D00087018115A501A50A092B2D08083E860073
:1005E00087018119092B7B08022B2D08031DFB2A8B
:1005F0007B08031DF32A2D080319092B7B08031D13
:10060000092B2D08083E860087018119092B00302F
:1006100008007B0897317B278231003A0319132B9E
:100620002000A701A70A2E0012082000A000200821
:10063000A1002E0013082000A0002008A2002F0017
:1006400013082000A0002008A3009731D027823192
:1006500020002D0803193E2B2D08043E860087013B
:100660000108FF3EA0002008AC00A60140302E008B
:1006700098002F00980122001D10502B7B08043E8B
:10068000860087010108FF3EA0002008AC00A601FB
:10069000A60A2E00980140302F00980022001D1459
:1006A000F20120002D08843174248231F201F20A13
:1006B0007B08843174248231200069106911E911AA
:1006C0006E089631D12682319631B42682312000CF
:1006D000DB01DC012608031D732B111FE910111F1C
:1006E0006F2B1113792B121B762BE910121F762B0F
:1006F00012132130A00020082E009806213020007F
:10070000A00020082F009806C0302000A00020087C
:100710002E009406C0302000A00020082F00940670
:1007200020002C18D92B2E001A082000D3072E00E9
:100730001B082000D43D2F001A082000D5072F00E9
:100740001B082000D63D2708031DBE2B2E001A08CB
:1007500020002A02F1002E001B0820002B3BF20093
:100760008831DC20823171082000DB077208DC3D13
:100770002E001B082000AB002E00D52B2F001A08DE
:1007800020002A02F1002F001B0820002B3BF20062
:100790008831DC20823171082000DB077208DC3DE3
:1007A0002F001B082000AB002F001A082000AA0011
:1007B0000D2C2E001A082000D3022E001B0820004A
:1007C000D43B2F001A082000D5022F001B08200060
:1007D000D63B2708031DF32B2E001A082000280201
:1007E000F1002E00F92B2F001A0820002802F1003A
:1007F0002F001B082000293BF2008831DC208231C9
:1008000071082000DB077208DC3D2E001B08200069
:10081000A9002E001A082000A8002C08031969144A
:100820000130AC02E91C162C69156914E914691C25
:100830006A2B9631B7268231200021082E009200C3
:10084000200022082E009300200023082F00930090
:100850002000691D2D2CFB300800E91D312CFA30D9
:10086000080024080319392C2D08083E860087014A
:10087000811125080319412C7B08083E8600870159
:1008800081112D089731E0278231003A0319552C48
:1008900020002D08973143278231003A031D552C43
:1008A00020002D088631EF2682317B089731E02722
:1008B0008231003A0319672C7B0897314327823134
:1008C000003A031D672C7B088631EF2682312E000B
:1008D00096012F0096012E0097012F0097012E0000
:1008E00011102F001110072BF900790803190800C7
:1008F0007208031D7E2CF601F701822C8030F60071
:100900000030F7007608F3007308F800790A8600D3
:1009100087010108F3007808113EF400F501073063
:10092000F53D740886007508870073088100790812
:10093000053E860087010108F3007808193EF4009F
:10094000F5010730F53D74088600750887007308C7
:1009500081007808133EF300F4010730F43D73087A
:1009600086007408870050308100FE30F30078085C
:10097000183E860087010730873D73088105790896
:10098000973143278431003A0319D92C7908023E64
:10099000860087010108F3007808163EF400F5018F
:1009A0000730F53D740886007508870073088100DC
:1009B000EC2C7808163EF300F4010730F43D730880
:1009C000860074088700203081007908973133272A
:1009D0008431003A0319FE2C7908033E8600870112
:1009E0000108F3007808173EF400F5010730F53DE3
:1009F00074088600750887007308092D7808173E6B
:100A0000F300F4010730F43D730886007408870092
:100A1000203081007908043E860087010108F30038
:100A2000F4010930F335F40D890B122D7235533E64
:100A3000860087017308C03F7408C13F080020008A
:100A4000BF00370886008701403FB900413FBA0028
:100A5000390884003A0885001200253A031DA42DA8
:100A60003708860087010130810741310318810A68
:100A7000D701D8012100C001C101FF30BE00FF3005
:100A8000BF002000370886008701403FB900413F82
:100A9000BA00390884003A0885001200633A031D41
:100AA000722D370886008701013081074131031814
:100AB000810A380886008701010884008501023018
:100AC00081070008B9003908BE003E08B90039089E
:100AD000B1003F088A31E42220003208B800310812
:100AE000B7000800370886008701403FB900413F42
:100AF000BA00390884003A0885001200253A031D1F
:100B0000992D37088600870101308107413103188C
:100B1000810A2530F4000030F5003F08B90039089B
:100B2000F6008C31202401302000B7000030B800DE
:100B3000080037088600870101308107413103181A
:100B4000810AB701B8010800370886008701403FD5
:100B5000B900413FBA00390884003A08850000080E
:100B6000BB00BC013B08F4003C08F5003F08BD0099
:100B70003D08F6008C31202485312000370886009E
:100B800087010130810741310318810A932D20002C
:100B90002408093E860087010108803AA500240840
:100BA0000E3E860087010103FF3A803AA502031832
:100BB000002E24080A3E860087010130810741315A
:100BC0000318810A24080A3E86008701403FA500D9
:100BD000413FA60000302602413003192502031CC4
:100BE0003C2E24080A3E860087010030C03FC13FEA
:100BF00024088600870101088B31BD2385313C2EF6
:100C00002408093E860087010108A500A601A51B4E
:100C1000A60324080E3E860087012608803A803C01
:100C2000031D142E250801020318342E0230200063
:100C3000A5002408023E86008701250881002408BB
:100C40000A3E860087010030C03FC13F240886006D
:100C500087010108A5002508F40021005B088A002F
:100C60005A080A0086313C2E200024080A3E8600DD
:100C700087010030C03FC13F200024080C3E8600A1
:100C800087010130810741310318810A24080C3E95
:100C9000860087011600403AA5001600A504031D32
:100CA000080024080C3E860087010030C03FC13F89
:100CB00024088731792708002000C2004208BF00BD
:100CC000C001BF35C00D21303F0784009830403D42
:100CD00085000008C1004108C4004208BF00C001EF
:100CE000BF35C00D22303F0784009830403D85005D
:100CF0000008C1004108C5004508BF003F08BB000F
:100D000044088E31AB2686312000C0004008C30065
:100D1000C92E44089731E0278631003A0319A82EDE
:100D200020006A08031D982E44088A3171228631FA
:100D3000200044089731252786312000440886008A
:100D400087010108BF003F08F1009631AD268631CA
:100D5000200045089731E0278631003A0319EC2E30
:100D600020006A08031DB82E45088A317122863199
:100D70002000450897312527863120004508860048
:100D800087010108BF003F08F1009631AD2686318A
:100D9000EC2E4308BF00C001BF1BC0034008003A4F
:100DA0000319D62EFF3A0319DB2EEC2E3F08003A2A
:100DB0000319892EEC2E3F08FB3A0319EC2E073A53
:100DC0000319EC2E013A0319EC2E033A0319EC2E09
:100DD000013A0319EC2EEC2E200043080800FA001B
:100DE0007A088B3162238631F5007508F9007A089C
:100DF000973133278631003A031D2E2F7935533E24
:100E000086008701403FF500413FF6007A08043E26
:100E1000860087010108F700F8010930F735F80D61
:100E2000890B0E2F76087802031D182F750877029C
:100E300003182A2F0130F5007A08053E8600870145
:100E4000750881070F300102031C08007A089731EA
:100E50006E2708007A0897316E2708007A08043E4A
:100E6000860087010108F500F601F535F60D7A08D0
:100E7000063E860087017935533E84008501403F58
:100E80000002F1000131413F003BF2008831DC20DB
:100E9000863176087202031D4F2F75087102031800
:100EA0005D2F2030F5007A08023E86008701750824
:100EB00081007A089731562708000230F5007A0839
:100EC000033E86008701750881077A08033E860085
:100ED000870120300102031C08002030F5007A0849
:100EE000023E86008701750881007A0897315627EF
:100EF0000800F7008B1FBF2F8B137708053E860075
:100F00008701403FF100413FF200423FF300433F81
:100F1000F4000430F436F30CF20CF10C890B8A2F38
:100F20007708053E86008701710881024131720809
:100F3000813B41317308813B41317408813B7D31F4
:100F40007708033E86008701403FF100413FF200F1
:100F50007108F3007208F400F501F6017708053E08
:100F6000860087017308810741317408813D413152
:100F70007508813D41317608813D8B17080077085F
:100F8000053E86008701403FF100413FF200423FAD
:100F9000F300433FF4000430F436F30CF20CF10C90
:100FA000890BCC2F7708053E8600870171088102E6
:100FB00041317208813B41317308813B41317408F2
:100FC000813B7D317708033E86008701403FF10079
:100FD000413FF2007108F3007208F400F501F601D8
:100FE0007708053E86008701730881074131740840
:100FF000813D41317508813D41317608813D0800D0
:10100000AC341634AE34F400F301741C0B287108B0
:10101000F2007208F3070310F10D0310F40C7408CA
:10102000031D0528730808004A302000CC004C0836
:10103000CF004908C1004808C0004F30CC004C0820
:10104000C20000308B318E23080089318D21883118
:101050009731052788319631CD26883197313B2746
:1010600088318C31CD248831973162270800DE30F9
:10107000F2007208F300DE30F20073087202031C03
:101080000800730897312C2788310930F200720864
:10109000F3073B28F4340D34C73405344F340E3491
:1010A000AC341634AD34163400345D34303410347E
:1010B000203400340034003400342100C201C30164
:1010C00020006108031D08000130D9060030DA064F
:1010D000590889310B218831200059088931242190
:1010E0000800F6007608031D83280930F50075080E
:1010F000F100760888310320E63E86008701010C66
:10110000890C01390800003008002000C701470899
:1011100086315C268831003A031990280030080097
:1011200001302000C6004608C70747080319872872
:1011300001300800F80078089731F02788317808E6
:101140009731C02788310930F7007708F100780817
:10115000883103208831DE3E97312C270800F800C3
:101160007808031DC2280930F7007708F1007808D5
:1011700088310320E43E86008701403FF500413F6F
:10118000F6000800F501F601080023001908F00038
:101190007C08A83E86008701700881000130F000BD
:1011A0007008FC0708307C020318FC010130F000D5
:1011B00070082000E50708007208803AF3008030CC
:1011C0007302031DE528013071020318080071093C
:1011D000F3007209F400F30A0319F40A7308F1002A
:1011E0007408F2000800F5007508F3007308F400B5
:1011F00075088600013087000108031904290130B1
:10120000F3007308F507F82874087502F100F2017D
:10121000F11BF2030800F30013299631C1260800E0
:101220009631C52608007308F100F2017208003AF1
:1012300003191B2923297108003A03190D29013AC2
:101240000319102923290800F3002C2922008C16E9
:10125000080022008C1208007308F100F2017208E5
:10126000003A031934293C297108003A0319262948
:10127000013A031929293C290800F2007208031DCC
:1012800054297208F1000330F135FF3E031D442953
:101290007135C63E8600870102300106031D5229C2
:1012A0000130080000300800003008000030F10074
:1012B0009030F2001030F3000030F400C4308B3175
:1012C0000D2389312000A00120088B31BD238931F5
:1012D0000130FB007B082000A0072008031D080048
:1012E00064292000EB01EB0A883185208931003A1E
:1012F000031D7C29003008009731B12789318031E6
:10130000022089312000C8004808EB0088313720CE
:1013100089319631BA2601300800373022008C001E
:1013200060308D00AC308E001B3021008C0070309E
:101330008D004D308E00ED3023008E0050308D003A
:1013400037308C0024008D018C012100951722007C
:101350009D010800083021006F020318C6292000F3
:101360006708B03E86008701010823009A0001301B
:10137000F00070082000E707083067020318E70153
:101380000130F00070082100EF070800111208007A
:10139000D7291430C8009830C900883114200800BB
:1013A0001930C8009830C900883114200800200086
:1013B0005A08003A0319DD29E5295908003A0319AA
:1013C000C929013A0319D029E5290800F300EC29BD
:1013D00001300800003008007308F100F2017208C3
:1013E000003A0319F429EA297108303A0319E82967
:1013F000013A0319E829773A0319E829123A03193F
:10140000E829013A0319E829EA290800F3007308DA
:10141000023E8600870102300106031D08007308A2
:101420000A3E860087010130810741310318810A95
:1014300073080A3E8600870116000104031D080098
:1014400073080A3E86008701FF30C03FFF30C13F6E
:101450000800F20021006F0803192A2A111A342A01
:10146000720823009A00492A11127208F100200024
:101470006808B03E86008701710881000130F100E4
:101480007108E807083068020318E80101302100FC
:10149000EF022100111608002000650803194C2AEC
:1014A0006608A03E860087010108F1007108E4008B
:1014B0006608A83E860087010108F1007108F20065
:1014C0000130F1007108E607083066020318E601F2
:1014D0002100911201302000E502210091167208CE
:1014E0000800F70077088B3162238A31F500750810
:1014F000F6008B1F8A2A8B137635533E86008701B0
:101500007708063E84008501403F803F413F813F90
:101510008B1708007635533E860087017708063E14
:1015200084008501403F803F413F813F080020000B
:10153000A700A501A60125082707A100210886000C
:10154000013087000108A2002208A4002408031922
:1015500008002408A100A2012108F4002208F500D7
:101560002008A3002308F6008C3120248A310130A2
:101570002000A5070030A63D9B2A2000D200D32AD8
:10158000E00108001E30C8009830C9005208D000A1
:10159000D1015008CA005108CB0088311420200026
:1015A000E001E00A08005208D000D1015108003AD9
:1015B0000319DB2AC22A5008463A0319C02A123AF4
:1015C0000319C02AC22A08002000B6005708580490
:1015D000031DEF2A5808B5005708B400F52A57082C
:1015E000FF3EB400FF30583DB5003108B30033086A
:1015F0002200A000A10120302000B3003308A80081
:101600003508AA003408A90036088D31A425200029
:101610002908B2002808B1000800F9007208F80093
:101620007108F7007908F5007508FA000130F30237
:101630000030F43B730A0319740A03190800770891
:101640008400780885000008F5007508F600013070
:10165000F7070030F83D7608F5007A088600870124
:10166000750881000130F5007508FA07162BF9009E
:10167000790A8600870101088831AF208B3175080F
:101680002000A0007608A100A201A3017908053E70
:10169000860087012008C03F2108C13F2208C23FC1
:1016A0002308C33F7908053E860087010430813551
:1016B0004131810D4131810D4131810D7D31890BE8
:1016C000572B0800F300F4017408F100F201F13522
:1016D000F20D2130710784009830723D85000008BA
:1016E0007306031D752B003008007408F100F20129
:1016F000F135F20D2230710784009830723D85007B
:1017000000087306031D862B013008000130F1002C
:101710007108F4077408031D732B642B2000C500A7
:101720004108C7004008C6002100BC01BD012000DF
:10173000460884004708850012000319B42B463080
:10174000C3004308B7004208C4004408B800450875
:1017500085311F258B31200037082100BC07200070
:1017600038082100BD3D972B21003D082000C10015
:1017700021003C082000C0000800F9007908F700AB
:101780000330F735FF3E031DC12B7735C43EF8000B
:101790007808FA007A08023E8600870181017A08FB
:1017A000053E860087010030C03F0030C13FC23F88
:1017B000C33F7A080A3E860087010030C03FC13F20
:1017C0007A080C3E860087010030C03FC13F7A0A8C
:1017D0008600870101089731C02708007C08A03ED9
:1017E00086008701810123001D1D012C7C08A03E7D
:1017F00086008701811421006A088A0069080A00AE
:101800008C3123009D1C0F2C7C08A03E8600870194
:101810000115210068088A0067080A008C317C08DD
:10182000A03E86008701010803191D2C22004108F3
:101830008A0040080A008C3108008831C520080061
:101840007608031D7608031D292C74089631D626C8
:1018500008007608033E860087011600010403197C
:101860004C2C7608033E86008701403FF700413F3D
:10187000F800760A86008701403FF900413FFA00F0
:101880007A08803AFB007808803A7B02031D4A2CD4
:101890007708790203180800760A8600870101306C
:1018A000810741310318810A0800F90079088B315A
:1018B00062238C31F5007508F80079089731E0272C
:1018C0008C31003A03197B2C7908063E860087018B
:1018D0007835533E84008501403F0002F10001311C
:1018E000413F003BF2008831DC208C317208F70068
:1018F0007108F6007D2CF601F701003077026530A3
:1019000003197602031C882C7908973117270800E1
:10191000790897311E270800F60000302100BB002F
:101920000030BA000030B9000030B800B92C0030E7
:1019300089310B218C310030893124212000E001D4
:10194000D901DA010800013089310B218C310130D5
:10195000893124212000E0010130D9000030DA0073
:1019600008002000E001DD01DD0A08002000E001A0
:1019700008007608F400F5017508003A0319C12C37
:10198000B62C7408303A0319972C013A0319A32C8A
:10199000643A0319B12CB62C080021009112EE30E4
:1019A000F1000B30F2009631F9268C312100111232
:1019B000AA30F1000930F2009631FF268C310A304E
:1019C00023009F0090309D0024309E0040309B00FB
:1019D00003309C00AB30F1001630F2009631ED265A
:1019E0008C31BD30F1001630F2009631F3268C3187
:1019F000AE30F1001630F2009631E7262000E40107
:101A0000E801E7010830F30073082100EF00FC0152
:101A10002000E601E501210091160800FB007B088B
:101A2000023E8600870101080319452D7B08033E0D
:101A300086008701403FF900413FFA00FA36F90C71
:101A4000FA36F90C7B08033E86008701790881028B
:101A500041317A08813B7F317B0A8600870101088A
:101A60008831AF207508F9007608FA00FA36F90CCB
:101A7000FA36F90C7B08033E860087017908810756
:101A800041317A08813D7F3108007B0A8600870159
:101A900001088831AF207B08033E86008701750866
:101AA000C03F7608C13F08002000AB002B08A9000A
:101AB0000330A935FF3E031D592D2935C43EAA0028
:101AC0002A08AC002C0A8600870101089731A32759
:101AD0008D31003A0319080020002C0A8600870186
:101AE0000108883171208D31003A03190800200067
:101AF0002C08973195278D3120002C088F317D27B8
:101B00008D3120002C08023E86008701033001023F
:101B1000031C912D2C088600870101088B31BD2301
:101B20008D3120002C08A9002908A4002C08023EB1
:101B3000860087010135D43E86008701413F8A0037
:101B4000403F0A008D3108002000B0002100401CF9
:101B5000B22D20003008AB002B08A00028088A31E5
:101B600097228D312000AA1BBA2D2A08AF00290820
:101B7000AE00BC2DAE01AF01AC01AD012D08803A25
:101B8000AB002F08803A2B02031DC82D2E082C0213
:101B90000318DC2D2030F4000030F5002000300860
:101BA000AB002B08F6008C3120248D310130200051
:101BB000AC070030AD3DBE2D21004018E82D2000BF
:101BC0003008AB002B08A00028088A3197228D31FD
:101BD000200028088831F32020002E087107A80073
:101BE0002F08723DA9000800200024080A3E860044
:101BF0008701403FA500413FA60000302602093082
:101C0000031925020318092E24088B3137238D313F
:101C10000D2E2408873179278D31200024080A3EB3
:101C2000860087010130810741310318810A2408A9
:101C30000A3E86008701403FA500413FA6000030D4
:101C40002602103003192502031C08002408053E53
:101C500086008701403FA500413FA600423FA70004
:101C6000433FA8000430A836A70CA60CA50C890B8E
:101C7000332E2408033E860087012508C03F26082E
:101C8000C13F2408023E860087018101810A2408A1
:101C90000A3E860087010030C03FC13F0800200097
:101CA00024080A3E86008701403FA500413FA60068
:101CB00007302602D03003192502031C742E240895
:101CC0008600870101088B31BD238E312000240856
:101CD000860087010108A5002508F4006D088A0028
:101CE0006C080A008E3108002408093E860087012E
:101CF0000108803AA50024080E3E860087012408CA
:101D00000E3E8400850100360102803AA5020318C8
:101D100008002408023E860087018101810A240808
:101D20000A3E860087010030C03FC13F24080C3EB8
:101D300086008701FF30C03FFB30C13F240886008A
:101D400087010108A5002508F4006D088A006C08C9
:101D50000A008E3108002000BE000530BC003C089F
:101D6000BD003E08031DC12E3B08031DC12EFF30E0
:101D7000080001302000BD023D08031DC12EFC30CB
:101D800008003B08BC003C08FB003E088231B6223C
:101D90008E31003A031DB92E20003E080319D42EBF
:101DA0003E088C3155248E3120003B080319DC2E6F
:101DB0003B088C3155248E3120003E0897317B271B
:101DC0008E31003A0319EC2E20003E08973143274C
:101DD0008E31003A031DFC2E20003B0897317B27F3
:101DE0008E31003A0319052F20003B089731432715
:101DF0008E31003A0319052F20003B08BC003C0837
:101E0000AE003E088F310727080000300800200090
:101E1000B3005C08B0005B08AF00B036AF0CB03662
:101E2000AF0C5B082F07B1005C08303DB2006E08B4
:101E3000AF002F08B4005408B7005308B600560886
:101E4000B9005508B800BA013A080F3E840098302E
:101E50000318013E85000008AF002F08EE07AE30E2
:101E60006E020318372FAE30AF002F08EE07053093
:101E7000AF002F08B5002E08AF002F08FB00330875
:101E80008231B6228F31003A03194E2F01302000E3
:101E9000B5023508031D3B2FFC30080020005C080C
:101EA0003202031D552F5B0831020318672F5C08AF
:101EB000B2005B08B1006E08AF002F08B4005408F0
:101EC000B7005308B6005608B9005508B8000130ED
:101ED000AF002F08BA0705303A02031C242F34083C
:101EE000AF002F08EE003708D4003608D3003908B9
:101EF000D6003808D500003008002000A0002008D7
:101F0000053E86008701403FF100413FF200423F1D
:101F1000F300433FF4000430F436F30CF20CF10C00
:101F2000890B8C2F2008033E86008701403FF50077
:101F3000413FF6007508F7007608F800F901FA014C
:101F40007108F7027208F83B7308F93B7408FA3B12
:101F50007A08A4007908A3007808A2007708A100F5
:101F60002108F1002208F2002308F3002408F400FD
:101F700020080F3E86008701010AC22FF437F30CB8
:101F8000F20CF10C890BBE2F7408A4007308A30097
:101F90007208A2007108A100A41BE32F2408031DEE
:101FA000DB2F2308031DDB2F2208031DDB2F8030CE
:101FB0002102031CE32F0030A4000030A3000030F6
:101FC000A2007F30A100A41FF72F80302102FF3034
:101FD000223BFF30233BFF30243B0318F72FFF3019
:101FE000A400FF30A300FF30A2008030A100210830
:101FF000F1002008093E8600870171088100080071
:102000000034003400340034003400340034003430
:1020100000340034003400340034003464340134BB
:102D56000800080008008831C52008002000650822
:102D6600080020001C15080020001C1108009631E0
:102D7600C926080023001D121D16080022008E1603
:102D86008E13080022008E178E120800C4308A3176
:102D9600062208001630210097000800F10071088D
:102DA60020009B000800F30073088A3129220800DE
:102DB60072082000ED007108EC000800720821007E
:102DC600DB007108DA00080072082200C1007108F1
:102DD600C000080072082100EA007108E900080036
:102DE60072082100E8007108E70008007208210057
:102DF600EC007108EB00080072082100EE00710873
:102E0600ED000800F030210099002200960108002C
:102E1600640080010131890B0C2F0034FE00120082
:102E26001E00FE0B122F0034F1007108083E8600CA
:102E3600870181140800F1007108083E86008701A9
:102E460081100800F1007108083E86008701011410
:102E56000800F1007108083E86008701011008008D
:102E6600F1007108083E86008701010E013908004D
:102E7600FF3020009B009A01911004309C0008004E
:102E8600F1007108083E86008701010C890C0139A2
:102E960008002100C201C30120006108031D0800CB
:102EA600DD01DD0A0800F1007108083E8600870191
:102EB60001157108083E8600870101120800973146
:102EC60088279731893156219731883137209731B4
:102ED6009731D0270800F1007108083E8600870167
:102EE60001167108033E860087018101810A0800E8
:102EF600F1007108031D812F003008007108083E9B
:102F060086008701010C01390800FA017A08883128
:102F16009A2097310130F9007908FA077A08031DDB
:102F26000800892F2000A0008B1F9F2F8B132008DD
:102F36008D310E258B17080020088D310E250800CF
:102F4600F6000930F5007508F1007608883103208F
:102F5600E63E860087010108013908002000AE011F
:102F66002E088D315425973101302000AD002D08F3
:102F7600AE072E08031D0800B32FF6007608031DC2
:102F860008000930F5007508F1007608883103203D
:102F9600E63E8600870101110800FC3020009C05F2
:102FA6002E0091012F00910190302E0092004030AA
:102FB600940040302F0094000800F20072080319B4
:102FC600EE2F7208083E86008701010CF100F10C15
:102FD600710C0139080000300800F6007608031D60
:102FE60008000930F5007508F100760888310320DD
:102FF600E63E860087018115080050344934433483
:1030060053344D34413452345434003452345534EC
:103016004E340D340A34003400340D341C341E345E
:10302600173450344934433430340034503449343E
:103036004334313400342534633400340034DE3410
:020000040001F9
:04000E00E4FDFFF717
:00000001FF
